:10F000000C943E780C9468780C9468780C9468782A
:10F010000C9468780C9468780C9468780C946878F0
:10F020000C9468780C9468780C9468780C946878E0
:10F030000C9468780C9468780C9468780C946878D0
:10F040000C9468780C9468780C9468780C946878C0
:10F050000C9468780C9468780C9468780C946878B0
:10F060000C9468780C9468780C9468780C946878A0
:10F070000C9468780C9468780C94687811241FBEFE
:10F08000CFEFD0E1DEBFCDBF87EF84BF0FB6F894DE
:10F09000A895809160008861809360001092600064
:10F0A0000FBE11E0A0E0B1E0EAECFFEF02C0059076
:10F0B0000D92AA31B107D9F722E0AAE1B1E001C06F
:10F0C0001D92A035B207E1F70E94AC790C94E37F62
:10F0D0000C940078209A209A0895289A08952898E8
:10F0E0000895209A089520980895209B0C94717893
:10F0F0000C947378289B0C946D780C946F78249AF8
:10F10000259A279A2E9A089580EA31973197319758
:10F1100000008A95D1F7089502D02C9801C02C9A4E
:10F120008FEF98E087FD2D9A87FF2D98880F1E9905
:10F1300083952F9A2F989A95A9F70895FB0183E05C
:10F1400080935700E8958091570080FDFCCF81E1C6
:10F1500080935700E89508950F921F92FB01DA0102
:10F1600090E80D901D9081E080935700E8953296CD
:10F170009A95B9F7FB0185E080935700E895809157
:10F18000570080FDFCCF81E180935700E8951F90E8
:10F190000F900895CF92DF92EF92FF92CF93DF937B
:10F1A00000D0CDB7DEB7C12CD12C760140E051E0C4
:10F1B0006FEF70E087E491E00E94C67FAE014F5F81
:10F1C0005F4F60E071E087E491E00E946E7DA7E40C
:10F1D000B1E0C60187549140FC01EA0FFB1FE491A6
:10F1E0002D91E21317C022E0A734B207A9F78FEFE1
:10F1F000D81AE80AF80AC11420EFD206E104F10493
:10F20000A9F60F900F90DF91CF91FF90EF90DF90D4
:10F21000CF900895C701B6010E949E7847E451E05F
:10F22000C701B6010E94AC78E2CFADE0B0E0EBE1FF
:10F23000F9E70C94867F5C018DE191E00E94E97A08
:10F2400081116FC08DE0E0E0F1E09E012F5F3F4F44
:10F250007901D90101900D928A95E1F789012DEF8D
:10F26000C22E27E0D22EC8018E199F09F8016191A4
:10F270008F01662339F0C6010E94D57F3DE0C31A95
:10F28000D108F1CF4DE0489F9001499F300D1124E6
:10F290006FEF8DEF97E0821B930B0E94D57F00E00C
:10F2A00010E0379B09C087E4882E82E0982ECC249A
:10F2B000CA9497E0D92E0FC03799F3CFC5010E94A9
:10F2C000D67B0E94CA78F80185919491019649F302
:10F2D000F8010995E6CF9401275432407901C6011F
:10F2E0000E94CD7F3DE0C31AD1088F3F21F0F40189
:10F2F00081934F01F0CFF701E95BFD4F108287E466
:10F3000092E00E94D67B8111CCCF87E492E00E94EC
:10F31000D67B0E94CA78F801859194910196C1F636
:10F32000C0CF2D96ECE00C94A27FADE0B0E0EBE90D
:10F33000F9E70C94907F8DE0EDE0F1E0DE011196AD
:10F3400001900D928A95E1F7CE0101960E94157900
:10F350002D96E2E00C94AC7F3F98479A2FEF81EE18
:10F3600094E0215080409040E1F700C000000E94EE
:10F3700095792FEF83E294EF215080409040E1F7A0
:10F38000F4CF0F931F93E0911A01F0911B019B01A1
:10F39000AC01225031094109510986819781A0852C
:10F3A000B1850297A109B109281739074A075B07F8
:10F3B00068F4A281B0E00E94757F028913892489D4
:10F3C0003589600F711F821F931F03C060E070E0DA
:10F3D000CB011F910F9108950F931F93CF93DF934C
:10F3E000DC01E0911A01F0911B0111961C921E9212
:10F3F00014966D917D918D919C9117976130710557
:10F400008105910569F10681178120853185601795
:10F4100071078207930720F5611571058105910534
:10F4200039F42081233021F466857785808991899C
:10F43000ED01688779878A879B876115710581054A
:10F44000910519F00E94C17904C06685778580898D
:10F4500091896C877D878E879F8780E090E002C0CE
:10F4600081E090E0DF91CF911F910F910895A4E08A
:10F47000B0E0EDE3FAE70C948A7FE0911A01F09195
:10F480001B01623071058105910508F459C0C680E1
:10F49000D780E084F1846C157D058E059F0508F00A
:10F4A0004FC02081223019F0233001F149C09B0167
:10F4B0003327220F331FBB27A92F982F872FC284F2
:10F4C000D384E484F584AC01BD014C0D5D1D6E1D3B
:10F4D0007F1D02E010E0CE0101960E94047F892B7F
:10F4E00079F569817A8180E090E02EC09B012F77C9
:10F4F0003327220F331F220F331FDC01CB0157E0CC
:10F50000B695A795979587955A95D1F7C284D384D8
:10F51000E484F584AC01BD014C0D5D1D6E1D7F1DA5
:10F5200004E010E0CE0101960E94047F892B41F493
:10F5300089819A81AB81BC81BC01CD019F7004C0DF
:10F5400061E070E080E090E02496E8E00C94A67F13
:10F55000A0E0B0E0EEEAFAE70C948A7FEC016A01E1
:10F560007B0102E010E02EEF31E00E94047F892B46
:10F5700031F58881998185359A4A19F526E330E07D
:10F58000B701A601CE010E94047F892B39F488813E
:10F5900099818634914411F480E016C002E010E0B5
:10F5A00022E530E0B701A601CE010E94047F892B3D
:10F5B00051F4888199818634914429F4EDCF83E018
:10F5C00003C082E001C081E0CDB7DEB7E8E00C9473
:10F5D000A67FA4E2B0E0EFEEFAE70C94807F1C0176
:10F5E00010921B0110921A010E94697E80FDA0C03A
:10F5F00040E050E0BA01CE0101960E94A87A813025
:10F6000009F500E110E02EEB31E040E050E0BA01F6
:10F61000CE0101960E94047F892B19F081E090E0D1
:10F62000C1C08D81811103C086E090E0BBC04984D8
:10F630005A846B847C84B301A201CE0101960E949E
:10F64000A87A03C0412C512C3201833039F3811147
:10F65000EBCF04E210E02DE030E0B301A201CE01D7
:10F6600001960E94047F892BC9F62A853B8540E0DC
:10F6700050E0211531054105510521F4288D398DC2
:10F680004A8D5B8DAC81B0E00E94757F4B015C01BF
:10F690000A811B8120E030E0400E511E621E731E65
:10F6A000F101428653866486758649814283CD8006
:10F6B000DE80D582C4828F819885A0E0B0E000977B
:10F6C000A105B10521F48C899D89AE89BF8954E0DB
:10F6D000D694C7945A95E1F7E12CF12C801B910B3D
:10F6E000A20BB30B88199909AA09BB09BC01CD016A
:10F6F0006C197D098E099F09242F30E040E050E00D
:10F700000E94537FDA01C9010296A11DB11DF101CA
:10F7100086839783A087B187BA01A901465F5F40BE
:10F72000610971094F3F5F4E61057105A0F103C08A
:10F7300082E090E037C0873F9F4FA105B10508F4F4
:10F7400073CF83E0F1018083833029F488A199A1EC
:10F75000AAA1BBA107C0D501C401840D951DA61D9A
:10F76000B71DF10186879787A08BB18BC40CD51C80
:10F77000E61CF71CC80CD91CEA1CFB1CF101C28A50
:10F78000D38AE48AF58A118230921B0120921A01F1
:10F7900080E090E007C0873F9F4FA105B10588F644
:10F7A00082E0D0CFA496E2E10C949C7F4F925F92CE
:10F7B0006F927F929F92AF92BF92CF92DF92EF9221
:10F7C000FF920F931F93CF93DF93CDB7DEB7EC97E4
:10F7D0000FB6F894DEBF0FBECDBFC0901A01D09017
:10F7E0001B01C114D10409F452C1D60111961C9217
:10F7F0009E012F5C3F4F3CA32BA3FC012E2F9F2F7C
:10F8000081918032D9F3E22EF92E8F3219F4BFEFB5
:10F81000EB1AFB0A1DA21EA21FA218A6F7018081E7
:10F82000803238F0A0E29A2E5E01FCE0AF0EB11CEF
:10F830006AC0CE0181960E94EC791982009709F482
:10F84000F1C036C180E090E028E031E0390FD70107
:10F85000A90FB11D9C91913208F060C0E30EF11C1C
:10F8600081E0913208F080E08387CE0181960E948A
:10F87000EC79009709F01CC129A13AA12F70332718
:10F88000F5E0220F331FFA95E1F74DA55EA56FA5B0
:10F8900078A900E210E0CE0101960E94047F892B36
:10F8A00009F0FAC08981882309F4F9C04C8543FD29
:10F8B00053C06BA17CA1FE0131969B01EA15FB05AB
:10F8C000E9F5DB011B968C918111ACC044FFE7C0C8
:10F8D000E0911A01F0911B018081833009F09EC0F4
:10F8E0008D899E89A0E0B0E0DC01992788274B8DA7
:10F8F0005C8D60E070E0842B952BA62BB72B8DA33D
:10F900009EA3AFA3B8A7EBA1FCA1DF01CF010B968B
:10F91000A817B90709F496CF9D92FACF9F3209F440
:10F920009DCF9E3209F4BEC0821708F097CFDF0149
:10F93000A80FB11D9C938F5F932F87CF8191D90121
:10F940005D919D01082E000C990B851B910957FDB7
:10F950009395892B09F4B2CF60901A0170901B0126
:10F9600009A11AA10F5F1F4F09F499C08DA59EA58B
:10F97000AFA5B8A90097A105B10509F490C09801F9
:10F980002F703327232B09F046C00196A11DB11D0E
:10F990008DA79EA7AFA7B8AB69A57AA58BA59CA597
:10F9A000611571058105910541F4F301848195810B
:10F9B0000817190708F073C02EC0D30112962C91B6
:10F9C00030E0A901415051099801E4E036952795AE
:10F9D000EA95E1F724233523232BE9F40E94377AB3
:10F9E000623071058105910508F456C0F301468027
:10F9F000578060847184641575058605970508F045
:10FA00004EC069A77AA78BA79CA70E94C1796DA752
:10FA10007EA78FA798AB1AA309A32ECF80E090E012
:10FA2000DC0165CF89818823A1F18C8584FD31C0FB
:10FA3000E0911A01F0911B018081833041F48D899E
:10FA40009E89A0E0B0E0DC019927882703C080E010
:10FA500090E0DC014B8D5C8D60E070E0842B952B99
:10FA6000A62BB72BF601868F978FA0A3B1A38D8D00
:10FA70009E8DAF8DB8A1828F938FA48FB58F168A7C
:10FA8000178A108E118E81E0818380E003C085E0AB
:10FA900001C083E090E00CC081E090E009C083E009
:10FAA00090E006C0283009F0D9CE88E02BE044CFA2
:10FAB000EC960FB6F894DEBF0FBECDBFDF91CF91AD
:10FAC0001F910F91FF90EF90DF90CF90BF90AF907C
:10FAD0009F907F906F905F904F900895A0E0B0E06E
:10FAE000E4E7FDE70C94827F4C016B015A01C09161
:10FAF0001A01D0911B01FA0111821082209709F49A
:10FB0000A1C0898180FFA1C08A8D9B8DAC8DBD8DE8
:10FB10004E895F89688D798D841B950BA60BB70B79
:10FB2000A60160E070E084179507A607B70708F400
:10FB30006C013401412C32E0532EC114D10409F47C
:10FB40007EC08E899F89A88DB98DAC01BD01517091
:10FB500066277727452B462B472BD1F5FA80FA9459
:10FB6000AC01BD0129E076956795579547952A9593
:10FB7000D1F7F422C1F4892B8A2B8B2B29F46E8DBB
:10FB80007F8D88A199A106C06AA17BA18CA19DA1AE
:10FB90000E94377A6230710581059105A0F16AA350
:10FBA0007BA38CA39DA36AA17BA18CA19DA10E9494
:10FBB000C179611571058105910529F1DC01CB0140
:10FBC0008F0D911DA11DB11D8EA39FA3A8A7B9A73D
:10FBD0002E893F893170C201821B930B76018C15EF
:10FBE0009D0508F47C014EA15FA168A579A581144B
:10FBF000910411F0C30102C080E090E087010E94EF
:10FC0000047F892B21F0198281E090E020C08E8949
:10FC10009F89A88DB98D8E0D9F1DA11DB11D8E8B45
:10FC20009F8BA88FB98F6E0C7F1CCE18DF08F50153
:10FC300080819181E80EF91EF182E0827ECF80E022
:10FC400090E005C085E090E002C084E090E0CDB790
:10FC5000DEB7E0E10C949E7FFF920F931F93CF934A
:10FC6000DF93C82FD42F152F062FF72E87FF09C03B
:10FC700040E050E0BA0187E70E942C7E823020F5F8
:10FC8000CF770E948C788C2F0E9491788F2D0E94C4
:10FC90009178802F0E949178812F0E9491788D2FEA
:10FCA0000E949178C03421F0C83421F487E803C061
:10FCB00085E901C081E00E949178CAE00E949078B5
:10FCC00087FF02C0C150D1F7CDB7DEB7E5E00C9495
:10FCD000A97FA4E0B0E0EFE6FEE70C948B7F0E94E2
:10FCE0007F7814E60E9484781150E1F71AE00E94B0
:10FCF0008F781150E1F740E050E0BA0180E40E94B3
:10FD00002C7E813009F07AC04AEA51E060E070E070
:10FD100088E40E942C7E813051F58E010F5F1F4FC9
:10FD2000780124E0D22ED00E0E949078F7018193C2
:10FD30007F01DE12F9CF8B81813009F05FC08C81A9
:10FD40008A3A09F05BC090E1E92E97E2F92E40E093
:10FD500050E060E070E489EE0E942C7E882339F147
:10FD60000E948478F1E0EF1AF10889F747C040E07B
:10FD700050E0BA0189EE0E942C7E823018F011E02A
:10FD800001E402C012E009EE80E1E82E87E2F82EDD
:10FD900040E050E0BA01802F0E942C7E882329F198
:10FDA0000E948478F1E0EF1AF10891F727C040E053
:10FDB00050E0BA018AE70E942C7E81111FC00E9488
:10FDC0009078F80181938F01DE12F9CF898186FD49
:10FDD00002C014E001C01CE010931C010E948F7847
:10FDE00081E0112369F080E00BC040E052E060E068
:10FDF00070E080E50E942C7E882371F310E0ECCF48
:10FE00002496E7E00C94A77FA0E0B0E0EAE0FFE7EB
:10FE10000C948A7FD82EC92E790180911C0183FD14
:10FE200007C089E0440F551F661F771F8A95D1F7D9
:10FE300081E50E942C7E882319F0C1E0D0E02BC020
:10FE4000C0E4DCE90E9490788F3F19F42197D1F744
:10FE5000F4CF8E3F91F7C2E0D2E0C01BD10BCE1998
:10FE6000DF09E114F10419F4ED2CFC2C06C00E940A
:10FE7000907881E0E81AF108F4CF0E949078F701B9
:10FE800081937F0101501109C1F70E949078219759
:10FE9000E1F7C0E0D0E00E948F78CE01CDB7DEB7A9
:10FEA000E8E00C94A67FA1E21A2EAA1BBB1BFD0161
:10FEB0000DC0AA1FBB1FEE1FFF1FA217B307E40749
:10FEC000F50720F0A21BB30BE40BF50B661F771FA1
:10FED000881F991F1A9469F7609570958095909581
:10FEE0009B01AC01BD01CF0108950E94B77FA59F82
:10FEF000900DB49F900DA49F800D911D1124089525
:10FF00002F923F924F925F926F927F928F929F9229
:10FF1000AF92BF92CF92DF92EF92FF920F931F9317
:10FF2000CF93DF93CDB7DEB7CA1BDB0B0FB6F894C8
:10FF3000DEBF0FBECDBF09942A88398848885F8408
:10FF40006E847D848C849B84AA84B984C884DF8079
:10FF5000EE80FD800C811B81AA81B981CE0FD11D5D
:10FF60000FB6F894DEBF0FBECDBFED010895A29F7E
:10FF7000B001B39FC001A39F700D811D1124911D7D
:10FF8000B29F700D811D1124911D0895DC0101C0E7
:10FF90006D9341505040E0F70895F999FECF92BD1E
:10FFA00081BDF89A992780B50895262FF999FECF3B
:10FFB0001FBA92BD81BD20BD0FB6F894FA9AF99A86
:0AFFC0000FBE01960895F894FFCFDC
:10FFCA005255564943534142414C4C4100525556B1
:0AFFDA0049435341422E42494E00B4
:040000030000F00009
:00000001FF
