:100000000C9408030C9430030C9430030C943003CC
:100010000C9430030C9430030C9430030C94300394
:100020000C9430030C9430030C9430030C94300384
:100030000C9430030C9430030C9430030C94300374
:100040000C9430030C9430030C94C2090C943003CC
:100050000C94B5080C948F080C9430030C94300366
:100060000C9430030C9430030C9430030C94300344
:100070000C9430030C9430030C94300301020408F8
:100080001020408001020408102040800102040872
:10009000102040800102040810204080000022004F
:1000A000250028002B0002020202020202020404C0
:1000B000040404040404030303030303030301010E
:1000C00001010101010100002100240027002A0094
:1000D000000020002300260029000000000102008B
:1000E00000000000000004030807000000000000FA
:1000F000000000000000000000007C3C3E5E2B3D44
:100100003F2F5B5D3B2C2A225C00050800FF0000AE
:1001100000000077EBFDC5C077EBF8EDC002BFFF34
:10012000B880011DFFB88072BF5F91C023BFFF91EF
:10013000C00008E71000FFF718EFFF0008A5100047
:10014000FFF75AEFFF01C6DA51007462E27C807A51
:100150005E8423007A5E94AF00255DBDBAA4863D1F
:10016000FF620008DFF78C2023AA4AB880DEF7BDC3
:1001700083607D6AD294A032545125260000007F0E
:10018000E023AA4AB89F011D52108001084AB88096
:100190000105F110000111F4100004210F8000028C
:1001A000BFF500000108EFFC0007FEE210000000B0
:1001B0000000002108420080529400000052BEAFAF
:1001C000A94023E8E2F880C644444C6045288AC927
:1001D000A0318880000011108410404104211100DA
:1001E000255DF754800109F2100000000318880013
:1001F00001F0000000000018C00044444000746793
:100200005CC5C023084211C07442E843E0F8446072
:10021000C5C011952F8840FC3C10C5C03A21E8C5E7
:10022000C0F8422222007462E8C5C07462F08B807C
:10023000000802000000080211000888820820005F
:100240003E0F800041041111007442620080746B03
:100250007B41E022A31FC620F463E8C7C074610895
:1002600045C0F46318C7C0FC21E843E0FC21E84224
:10027000007C6109C5E08C63F8C62071084211C09A
:1002800038842149808CA98A4A2084210843E08E41
:10029000EB5AC6208C7359C620746318C5C0F4632A
:1002A000E8420074631AC9A0F463EA4A207460E06B
:1002B000C5C0FD484210808C6318C5C08C6318A867
:1002C000808C635AD5408C544546208C5442108013
:1002D000F844E443E07A108421E0041041040078FB
:1002E000421085E022A200000000000003E0630845
:1002F00020000000182749E0842D98E6C0001D1852
:1003000045C0085B38CDA0001D1FC1C01148E210D8
:1003100080001D39B42E842D98C62020184211C0AB
:10032000100421498084254C524061084211C000CC
:10033000355AD6A0002D98C620001D18C5C0002D26
:100340009CDA10001B39B421002D984200001F07D1
:1003500007C0213E421440002318CDA0002318A856
:100360008000231AD5400022A22A20002317862EBF
:10037000003E2223E0110882104021080210804133
:1003800008221100454400000023B718FC007461E6
:1003900008B84C044118CDA0181D1FC1E0F818275B
:1003A00049E088182749E0C0182749E03018274954
:1003B000E003F18788C0F81D1FC1E0881D1FC1E060
:1003C000C01D1FC1E0280C2108E0324C2108E0606C
:1003D0000C2108E05008A8FE312008A8FE31303D6D
:1003E0000E43C0001E27C9E03AA5F94A607440E8F0
:1003F000C5C00440E8C5C00600E8C5C0744118CDBA
:10040000A0060118CDA04812949C2E881D18C5C0C6
:10041000882318C5C0213F4A7C8432D3C427E0DE3C
:10042000DDF27C84E4A5C95E521948E212981818DE
:100430002749E0180C2108E000C0E8C5C000C11839
:10044000CDA003C0E4A520F833DBCE2074A4F07C5B
:10045000007462E07C002008C845C00001F840003C
:100460000001F08400846574CC87846555DC21210B
:1004700000421080015545140005145550002449D0
:100480001244915555555555108421084210842F1A
:10049000084210BC2F0842294A5E94A500000F9420
:1004A000A5003C2F0842297A1E94A5294A5294A5FA
:1004B000003E1E94A5297A1F8000294A5F80001003
:1004C000BC2F000000000F0842108421800010841F
:1004D0002F800000000F8842108421884200000F06
:1004E000800010842F88421086218842294A529425
:1004F000A5294A438000000E4294A5297A0F800066
:10050000003E0E94A5294A4294A5003E0F80002982
:100510007A0E94A510BE0F8000294A5F8000003E2D
:100520000F884200000F94A5294A538000108621AD
:100530008000000621884200000394A5294A5F94A8
:10054000A510BE2F884210842F00000000018842B1
:10055000FFFFFFFFFF00000FFFFFE739CE739C187E
:10056000C6318C63FFFFF00000001B2949A003A7E0
:10057000E9FA0007E708420007D4A52940FC5044E7
:1005800047E0001F2949800294A5370007E8421080
:1005900080F91D18B89F22A3F8A88022A3152B600C
:1005A000320CE8C5C00000EAD5C00BA75AE5D074EC
:1005B00021E841C0746318C62007C1F07C00213EC9
:1005C0004203E041044403E011104103E039484292
:1005D0001084210842529C3181F018C0076E0EDC55
:1005E0000076F6E000000000630000000003000059
:1005F00039084A5184725294800070CCC780000040
:100600001EF7BC00000000000090A4A10842DF1EFD
:1006100011241FBECFEFD8E0DEBFCDBF11E0A0E0B8
:10062000B1E0E2EAF2E402C005900D92A63EB10705
:10063000D9F725E0A6EEB1E001C01D92AC35B207B6
:10064000E1F713E0C8E0D3E004C02197FE010E9467
:10065000C41FC730D107C9F70E94A3180C944F21BB
:100660000C940000CF92DF92EF92FF920F931F93B2
:10067000CF93DF936C017A018B01C0E0D0E0CE15FF
:10068000DF0589F0D8016D918D01D601ED91FC91C6
:100690000190F081E02DC6010995892B11F47E01AE
:1006A00002C02196ECCFC701DF91CF911F910F912E
:1006B000FF90EF90DF90CF900895FC01918D828D97
:1006C000981761F0828DDF01A80FB11D5D968C91A6
:1006D000928D9F5F9F73928F90E008958FEF9FEFB1
:1006E0000895FC01918D828D981731F0828DE80F6D
:1006F000F11D858D90E008958FEF9FEF0895FC0127
:10070000918D228D892F90E0805C9F4F821B9109F3
:100710008F739927089581E294E00E947F0321E07E
:10072000892B09F420E0822F0895FC01848DDF01DC
:10073000A80FB11DA35ABF4F2C91848D90E0019654
:100740008F739927848FA689B7892C93A089B18943
:100750008C9180648C93938D848D981306C002884D
:10076000F389E02D80818F7D80830895EF92FF9241
:100770000F931F93CF93DF93EC0181E0888F9B8DC4
:100780008C8D981305C0E889F989808185FD24C086
:10079000F62E0B8D10E00F5F1F4F0F731127E02E09
:1007A0008C8DE8120CC00FB607FCFACFE889F989E6
:1007B000808185FFF5CFCE010E949503F1CF8B8D0F
:1007C000FE01E80FF11DE35AFF4FF0820B8FEA891B
:1007D000FB898081806207C0EE89FF896083E88998
:1007E000F98980818064808381E090E0DF91CF91FE
:1007F0001F910F91FF90EF900895CF93DF93EC013D
:10080000888D8823C9F0EA89FB89808185FD05C030
:10081000A889B9898C9186FD0FC00FB607FCF5CF6A
:10082000808185FFF2CFA889B9898C9185FFEDCFB2
:10083000CE010E949503E7CFDF91CF91089580E02C
:1008400090E0892B21F00E948B0381110DC080E084
:1008500090E0892B71F080E090E0892B51F00E94AC
:100860000000811104C008950E940000F0CF0C9494
:1008700000000895833081F028F4813099F08230AF
:10088000A1F008958730A9F08830B9F08430D1F410
:10089000809180008F7D03C0809180008F7780934E
:1008A0008000089584B58F7702C084B58F7D84BDA4
:1008B00008958091B0008F7703C08091B0008F7D44
:1008C0008093B00008959FB7F8944091140250911E
:1008D0001502609116027091170286B5A89B06C09A
:1008E0008F3F21F04F5F5F4F6F4F7F4F9FBF762F3E
:1008F000652F542F44279A01AB01280F311D411D4C
:10090000511DA3E0B0E00E94B91F089508952F92F1
:100910003F924F925F926F927F928F929F92AF928F
:10092000BF92CF92DF92EF92FF920F931F93CF93DC
:10093000DF93CDB7DEB765970FB6F894DEBF0FBE75
:10094000CDBF4C01DC0118968D919C9119976817C9
:1009500079070CF001C11A968D919C911B9748174D
:1009600059070CF0F9C04C2C512CCB01B6E0CB9EB2
:10097000800D911D1124181619060CF0EDC0C2014E
:1009800033E0880F991F3A95E1F7840F951F1816E9
:1009900019060CF0E1C0F401318D231768F0E22F45
:1009A000F0E0D4015A968C9190E0830F911D8E1740
:1009B0009F0714F0231B01C020E0F4018789908D6C
:1009C000899FC0011124289FF001299FF00D112457
:1009D000F7FD3796CB86FA86E98618870F83598B01
:1009E000488B5B019D8A8C8A93E0F595E7959A95F3
:1009F000E1F79F012C5F3F4F3A832983612C712CD3
:100A0000212C312C80E090E04C2D50E05E834D8312
:100A1000EC89FD89208D30E06216730608F09CC0D9
:100A20004D815E81649E9001659E300D749E300DF7
:100A30001124A889B989A20FB31FBD87AC87BC82D6
:100A4000AB8245016501FC01EA19FB09FB8BEA8BCE
:100A500028893989260D371D3F872E878A899B89EA
:100A6000880D991DAC89BD8957962C9130E0A40161
:100A70004A195B094217530708F06AC08770992723
:100A8000892B91F489819A810196AC89BD895C9604
:100A9000ED91FC915D9729813A81E20FF31FE4917A
:100AA0002E2E312C9A83898327FE18C0AC89BD89EC
:100AB000ED91FC91BB85B23058F00684F785E02DAE
:100AC000EF80F884820192014C855D85B6011FC0DC
:100AD0000480F581E02D2F81388522C0E985FA85D3
:100AE0002F813885E217F30709F1AC89BD89ED91B3
:100AF000FC91BB85B23078F00684F785E02DE9845F
:100B0000FA84820192014C855D856B817C818C89A0
:100B10009D8909950BC00480F581E02D29853A85D2
:100B20004E855F85B4018C899D890995220C331C03
:100B3000ED81FE81CE0EDF1EFFEF8F1A9F0A2B8103
:100B40003C814D815E81240F351F3C832B8386CFF2
:100B5000BFEF6B1A7B0A5CCF65960FB6F894DEBFC9
:100B60000FBECDBFDF91CF911F910F91FF90EF90FE
:100B7000DF90CF90BF90AF909F908F907F906F90BD
:100B80005F904F903F902F900895CF92EF92FF92F9
:100B90000F931F93CF93DF93EC016A3029F42C89D4
:100BA0008E859F8538E058C06D3009F45DC0262FD2
:100BB000E881F981EA88FB88088919894E855F8573
:100BC0006C857D850488F589E02DCC8809952B8D71
:100BD000121604F5EA88FB88888999898E159F0585
:100BE000C9F0088D5C894F89E881F981059F8001F2
:100BF00011242503900111248E859F856C857D85A8
:100C0000459F600D711D11240684F785E02DAC0110
:100C1000CE0109952C893F898B8D082E000C990BEC
:100C2000830F911D289FA001299F500D11248C85B1
:100C30009D85840F951F9D878C874E8D4423A1F041
:100C400048855985239F4019510911244817590790
:100C50005CF4388D8E859F85239F800D911D112416
:100C60009F878E871D861C8681E090E0DF91CF9163
:100C70001F910F91FF90EF90CF900895EF92FF9208
:100C80000F931F93DC01ED91FC9111971A960D9132
:100C90001C911B9718962D913C9119970684F78506
:100CA000E02D7B0140E050E060E070E009951F918D
:100CB0000F91FF90EF9008956F927F928F929F9285
:100CC000AF92BF92CF92DF92EF92FF920F931F935A
:100CD000CF93DF936C015A014801EB013B01620E97
:100CE000731EC615D70574F4D601ED91FC910084EE
:100CF000F185E02D87019401A501BE01C60109958A
:100D00002196EFCFDF91CF911F910F91FF90EF9040
:100D1000DF90CF90BF90AF909F908F907F906F901B
:100D20000895EF92FF920F931F93DC01ED91FC91D8
:100D3000260F371F215031090680F781E02D7801F9
:100D40008A0109951F910F91FF90EF900895EF92FE
:100D5000FF920F931F937801DC01ED91FC91240F1A
:100D6000351F8901015011090680F781E02D9B0193
:100D700009951F910F91FF90EF9008956F927F92C8
:100D80008F929F92AF92BF92CF92DF92EF92FF929B
:100D90000F931F93CF93DF93EC014B015A0169012D
:100DA0003801E881F9810284F385E02D87010995F6
:100DB000E881F981A501460D571D41505109028472
:100DC000F385E02D9601B401CE010995E881F98102
:100DD0000084F185E02D9301A501B401CE010995B0
:100DE000E881F981C80CD91CB601615071090084F1
:100DF000F185E02D9301A501CE010995DF91CF91F9
:100E00001F910F91FF90EF90DF90CF90BF90AF9028
:100E10009F908F907F906F9008952F923F924F9266
:100E20005F926F927F928F929F92AF92BF92CF927A
:100E3000DF92EF92FF920F931F93CF93DF9300D037
:100E400000D0CDB7DEB74C017C836B836A015901BA
:100E5000A801C016D106C9F5DC01ED91FC9162171D
:100E600073072CF4261B370B2F5F3F4F38C12B81A4
:100E70003C81A216B3065CF42A193B092F5F3F4F51
:100E80000284F385E02D8701A601B5012DC1048000
:100E9000F581E02D9701A6016B817C810F900F9069
:100EA0000F900F90DF91CF911F910F91FF90EF90D6
:100EB000DF90CF90BF90AF909F908F907F906F907A
:100EC0005F904F903F902F9009946B817C816217C7
:100ED0007307D9F4DC01ED91FC91C016D1064CF4F6
:100EE0004C195D099A012F5F3F4F0084F185E02D79
:100EF000F9C09601201B310B2F5F3F4F0084F18515
:100F0000E02D87016B817C81EFC098012C193D0990
:100F100037FF03C0319521953109C501EB81FC8173
:100F20008E1B9F0B97FF03C091958195910961E0FE
:100F30008217930714F060E00BC09A2D8B2D5A0195
:100F4000492F582F9B818C81DC82CB82C92ED82ED1
:100F50002B813C81A216B3065CF49C2D8D2D6A0179
:100F6000492F582F9B818C81BC82AB82A92EB82E31
:100F700015018B819C81281A390A2A014C185D08B9
:100F800057FE03C0519441945108310137FE03C00C
:100F90009FEF691A790A75946794C416D5062CF0E8
:100FA000AFEFBFEFBA83A98304C0E1E0F0E0FA83BA
:100FB000E983611103C06B817C8155C04B815C81E9
:100FC0006B817C81A616B70694F16418750877FECC
:100FD00027C02B813C81241B350BD401ED91FC9162
:100FE0002115310551F02F5F3F4F0084F185E02D31
:100FF0008701B601C401099509C00480F581E02D7F
:1010000097014B815C81B601C40109954B815C81DC
:101010004F5F5F4FE981FA81CE0EDF1E620C731CB9
:101020002B813C812F5F3F4F3C832B83C9CFCA016B
:101030000196861797070CF059C0D401ED91FC91E9
:101040009B01241B350B0084F185E02D8701B6013F
:101050004BC06418750877FC0CC02B813C812F5F56
:101060003F4F3C832B838B819C81A816B9068CF75C
:1010700028C02B813C81261B370BD401ED91FC91BC
:101080002115310551F02F5F3F4F0284F385E02D8C
:101090008701A601C401099509C00480F581E02DEE
:1010A0009701A6016B817C81C40109956B817C81CC
:1010B0006F5F7F4FE981FA81CE0EDF1E620C731CD9
:1010C000CCCFCB010196AB81BC818A179B0774F40E
:1010D000D401ED91FC912B813C81261B370B0284BE
:1010E000F385E02D8701A601C40109950F900F90AB
:1010F0000F900F90DF91CF911F910F91FF90EF9084
:10110000DF90CF90BF90AF909F908F907F906F9027
:101110005F904F903F902F9008950E9406211F925C
:101120000F920FB60F9211242F933F934F935F931B
:101130006F937F938F939F93AF93BF93EF93FF939F
:1011400081E294E00E949503FF91EF91BF91AF91EE
:101150009F918F917F916F915F914F913F912F91CF
:101160000F900FBE0F901F9018951F920F920FB601
:101170000F9211242F938F939F93EF93FF93E091FE
:101180003104F09132048081E0913704F091380409
:1011900082FD12C0908180913A048F5F8F732091FD
:1011A0003B04821751F0E0913A04F0E0EF5DFB4F11
:1011B000958F80933A0401C08081FF91EF919F91B8
:1011C0008F912F910F900FBE0F901F901895CF9376
:1011D000DF93282F30E0F901E652FF4F8491F901A7
:1011E000E458FF4FD491F901EA55FF4FC491CC2345
:1011F00091F081110E943A04EC2FF0E0EE0FFF1FF6
:10120000E053FF4FA591B491EC91ED2381E090E084
:1012100021F480E002C080E090E0DF91CF9108955A
:101220001F93CF93DF93282F30E0F901E652FF4F51
:101230008491F901E458FF4FD491F901EA55FF4F29
:10124000C491CC23C9F0162F81110E943A04EC2FCF
:10125000F0E0EE0FFF1FE456FF4FA591B4918FB75A
:10126000F894111105C09C91ED2FE095E92302C07F
:10127000EC91ED2BEC938FBFDF91CF911F910895EF
:10128000CF93DF9390E0FC01E458FF4F2491FC01E1
:10129000EA55FF4F8491882361F190E0880F991FF0
:1012A000FC01EA53FF4FC591D491FC01E456FF4F76
:1012B000A591B491611109C09FB7F89488812095D8
:1012C00082238883EC912E230BC0623061F49FB798
:1012D000F8943881822F809583238883EC912E2B7C
:1012E0002C939FBF06C08FB7F894E8812E2B2883DC
:1012F0008FBFDF91CF9108958F929F92AF92BF924F
:10130000CF92DF92EF92FF926B017C010E94630407
:101310004B015C01C114D104E104F104F1F00E941D
:101320006304DC01CB0188199909AA09BB09883E2D
:101330009340A105B10570F321E0C21AD108E1087C
:10134000F10888EE880E83E0981EA11CB11CC11420
:10135000D104E104F10419F7DDCFFF90EF90DF90A5
:10136000CF90BF90AF909F908F9008952FB7F89433
:1013700060911002709111028091120290911302FB
:101380002FBF08951F920F920FB60F9211242F9323
:101390003F938F939F93AF93BF938091100290914F
:1013A0001102A0911202B091130230910F0226E6B1
:1013B000230F2D3728F029EE230F0196A11DB11D13
:1013C00020930F028093100290931102A0931202B7
:1013D000B09313028091140290911502A09116020D
:1013E000B09117020196A11DB11D80931402909334
:1013F0001502A0931602B0931702BF91AF919F916F
:101400008F913F912F910F900FBE0F901F901895C5
:101410008EBD0DB407FEFDCF08950F931F93CF939C
:10142000DF9300D0CDB7DEB78C018091BE049091E0
:10143000BF046A8379830E949E0CD8019796ED9130
:10144000FC91989780819F969C919F97982B908371
:101450009596ED91FC91969720819E969C91909502
:10146000922390837981872F0E94080A6A81862FB0
:101470000E94080AD8019596ED91FC91969790816B
:101480009E968C91892B80830F900F90DF91CF9146
:101490001F910F910C94530C0F931F93CF93DF93D5
:1014A0001F92CDB7DEB78C018091BE049091BF042E
:1014B00069830E949E0CD8019796ED91FC919897B4
:1014C00020819F969C919F979095922390839596CB
:1014D000ED91FC91969720819E969C9190959223F8
:1014E00090836981862F0E94080AD8019596ED9114
:1014F000FC91969790819E968C91892B80830F907A
:10150000DF91CF911F910F910C94530CAF92BF922A
:10151000CF92DF92EF92FF920F931F93CF93DF93BF
:10152000EC015B017A0169016AE20E944C0A8D8933
:10153000B501813029F0CE010E940D0AB60108C024
:10154000605E7F4FCE010E940D0AB601605E7F4F44
:10155000CE010E940D0A6BE2CE010E944C0A8D89D9
:10156000B701811109C0605E7F4FCE010E940D0A54
:10157000B801605E7F4F04C0CE010E940D0AB80121
:10158000CE010E940D0A6CE2CE01DF91CF911F9136
:101590000F91FF90EF90DF90CF90BF90AF900C94A1
:1015A0004C0AAF92BF92CF92DF92EF92FF920F93CD
:1015B0001F93CF93DF936C015901E801FC01208553
:1015C0003185621773070CF042C0828593854817F6
:1015D0005907ECF5FB01EA0DFB1D2E173F071CF424
:1015E0005901A61AB70A9A012C0F3D1F82179307BB
:1015F0001CF4EC01C41BD50B8A010C0F1D1F0150FC
:1016000011099B012A0D3B1D21503109C6010E9481
:10161000860A1C161D067CF48501B701C60102303E
:1016200011052CF00E940D0A01501109F6CF0E94FD
:101630000D0A2197EECFDF91CF911F910F91FF906F
:10164000EF90DF90CF90BF90AF900C94530CDF9150
:10165000CF911F910F91FF90EF90DF90CF90BF90AF
:10166000AF900895CF92DF92EF92FF920F931F9366
:10167000CF93DF937C01E9016801FC0180859185AE
:101680006817790754F522853385421753072CF5DF
:101690009B012C0F3D1F821793071CF4EC01C61B06
:1016A000D70B9B012C0F3D1F215031098A01C70127
:1016B0000E94860A1C161D0634F4B601C7010E945A
:1016C0000D0A2197F7CFDF91CF911F910F91FF90D6
:1016D000EF90DF90CF900C94530CDF91CF911F913E
:1016E0000F91FF90EF90DF90CF900895CF92DF920F
:1016F000EF92FF920F931F93CF93DF937C01E90149
:101700006801FC01808591856817790754F5828509
:101710009385481759072CF59A012C0F3D1F821706
:1017200093071CF4EC01C41BD50B8A010C0F1D1F81
:10173000015011099B01C7010E94860A1C161D0653
:1017400034F4B601C7010E940D0A2197F7CFDF914B
:10175000CF911F910F91FF90EF90DF90CF900C945D
:10176000530CDF91CF911F910F91FF90EF90DF907D
:10177000CF900895EF92FF920F931F93CF93DF9333
:10178000DC011896ED91FC9119976E177F07FCF418
:101790001A96ED91FC911B974E175F07C4F477FDE5
:1017A00016C057FD14C0E9017C018A010F5F1F4F6D
:1017B0009B012F5F3F4F0E94860ABE01C701DF9148
:1017C000CF911F910F91FF90EF900C940D0ADF9134
:1017D000CF911F910F91FF90EF900895CF92DF92DC
:1017E000EF92FF920F931F93CF93DF937C016B01D6
:1017F00000EA10E020E830E040E050E060E070E017
:101800000E94860AC0E0D0E5B601C7010E940D0A19
:101810002197D1F7DF91CF911F910F91FF90EF901A
:10182000DF90CF9008950C94EE0B611102C060E23E
:1018300001C061E20C944C0ADC015996ED91FC91D7
:101840005A973097B9F083899489A589B6894285DA
:10185000538564857585841B950BA60BB70B811585
:1018600020E89207A105B10538F08FEF9FE7A0E0CF
:10187000B0E0089580E090E00895CF93DF931F9249
:10188000CDB7DEB76983DC01ED91FC910280F38175
:10189000E02D41E050E0BE016F5F7F4F09950F9052
:1018A000DF91CF910895089561E0FC0184810E9449
:1018B00010098091190281111092190208958EBDAC
:1018C00000000DB407FEFDCF8EB508958FEF0C9488
:1018D0005F0C0F931F93CF93DF93EB010E94B60928
:1018E0008B010E94660C8F3F49F00E94B609601B75
:1018F000710B6C177D07A8F380E001C081E0DF91D8
:10190000CF911F910F910895CF93DF93EC018E81BA
:10191000882389F08F8198859C012F5F3F4F3887FE
:101920002F838230924018F40E94660CF3CFCE01D0
:101930000E94540C1E82DF91CF9108958CBD9DBDF5
:101940000895CF93DF93EC0180911902811109C0B2
:1019500081E0809319028091C0049091C1040E949B
:101960009E0C60E08C81DF91CF910C941009CF9296
:10197000DF92FF920F931F93CF93DF9300D000D09D
:10198000CDB7DEB76C01F62E29833A834B835C8397
:101990000E94840CC6010E94A10C6CE271E0C60199
:1019A0000E94690C8F2D80640E945F0C08E110E09A
:1019B0005C814B813A812981DA01C901002E04C082
:1019C000B695A795979587950A94D2F729833A8378
:1019D0004B835C830E945F0C0850110929813A8176
:1019E0004B815C81083F8FEF180731F7FF2029F00A
:1019F000E8E0FE1204C087E803C085E901C08FEF6C
:101A00000E945F0C10E00E94660CF601828787FF3F
:101A100004C01F3F11F01F5FF6CF0F900F900F9083
:101A20000F90DF91CF911F910F91FF90DF90CF909A
:101A30000895AF92BF92CF92DF92EF92FF920F93F1
:101A40001F93CF93DF93EC016901C801820F931FAD
:101A50008130924008F070C08E81882371F08881B7
:101A60009981AA81BB81481759076A077B0729F426
:101A70008F819885C816D906B0F5488359836A8343
:101A80007B838B85833039F089E0440F551F661FB7
:101A9000771F8A95D1F79A01AB0161E1CE010E94CF
:101AA000B70C882319F083E08D8346C00E94B609E5
:101AB0005B010E94660C8A878F3F49F40E94B60939
:101AC0006A197B096D327140A0F38FE003C08E3F2D
:101AD00031F08DE08D83CE010E94540C2DC018860C
:101AE0001F8281E08E838F8198858C159D0540F43F
:101AF0000E94660C8F819885019698878F83F3CF1B
:101B00006701E00EF11ECE14DF0431F00E94660C76
:101B1000F60181936F01F7CF8F819885080F191F08
:101B200018870F838985882319F00115124048F022
:101B3000CE010E94840C05C0CE010E94540C80E0AE
:101B400001C081E0DF91CF911F910F91FF90EF9045
:101B5000DF90CF90BF90AF900895EF92FF920F93D8
:101B60001F93CF93DF93EC01790141155105610576
:101B7000710511F482E13CC08B85833039F089E036
:101B8000440F551F661F771F8A95D1F79A01AB0145
:101B900068E1CE010E94B70C882311F084E028C0D0
:101BA0008EEF0E945F0C87018EEFF81AF801819189
:101BB0008F010E945F0C0E151F05C1F78FEF0E9469
:101BC0005F0C8FEF0E945F0C0E94660C8A878F71FA
:101BD000853031F081E18D83CE010E94540C09C023
:101BE00068E572E0CE010E94690C811107C085E1B1
:101BF0008D83CE010E94540C80E013C020E030E0C1
:101C0000A9016DE0CE010E94B70C811104C00E94B1
:101C1000660C882311F084E1EBCFCE010E94540CB6
:101C200081E0DF91CF911F910F91FF90EF90089588
:101C3000809120028823A9F1409100015091010177
:101C4000609102017091030121E232E080911E0255
:101C500090911F020E94AD0D811102C080E0089595
:101C600040911A0250911B0260911C0270911D025A
:101C7000411551056105710591F021E232E0809135
:101C80001E0290911F020E94AD0D882339F310921D
:101C90001A0210921B0210921C0210921D02109246
:101CA000200281E008958F929F92AF92BF92EF92AF
:101CB000FF920F931F93CF934B015C01C42F809130
:101CC000000190910101A0910201B09103018815DA
:101CD0009905AA05BB0501F10E94180E811102C0E9
:101CE00080E020C081E2E82E82E0F82E00E012E0E1
:101CF00020E030E0B501A40180911E0290911F0206
:101D00000E94190D882361F38092000190920101D5
:101D1000A0920201B092030180912002C82BC093CF
:101D2000200281E0CF911F910F91FF90EF90BF9023
:101D3000AF909F908F9008954F925F926F927F9295
:101D40008F929F92AF92BF92CF92DF92EF92FF92CB
:101D50000F931F93CF93DF93EC016A017B0128015E
:101D60003901423051056105710510F480E073C0FE
:101D700089859A85AB85BC850196A11DB11D841707
:101D80009507A607B70790F38B889C88AD88BE8817
:101D90008F89803129F4BB27AF2D9E2D8D2D09C051
:101DA000DB01CA0147E0B695A795979587954A95B7
:101DB000D1F7880E991EAA1EBB1E8091000190913A
:101DC0000101A0910201B091030188169906AA06AB
:101DD000BB0679F48F898031A1F4DD24EE24FF2441
:101DE000C601880F991FFC01EF5DFD4F51824082B3
:101DF00019C040E0C501B4010E94530E8111EACF21
:101E0000B5CFE894C7F8DD24EE24FF24C601880F7F
:101E1000991F880F991FFC01EF5DFD4F4082518291
:101E200062827382809120028160809320028A897D
:101E3000823080F08D819E81AF81B885880E991E99
:101E4000AA1EBB1E80921A0290921B02A0921C0234
:101E5000B0921D0281E0DF91CF911F910F91FF9011
:101E6000EF90DF90CF90BF90AF909F908F907F903A
:101E70006F905F904F9008958F929F92AF92BF9214
:101E8000CF92DF92EF92FF920F931F93CF93DF9346
:101E9000FC0181859285A385B4850196A11DB11DA4
:101EA00084179507A607B70710F480E05CC0838904
:101EB0009489A589B689C789C03129F4852E962EC3
:101EC000A72EBB2409C04A015B01C7E0B694A794C2
:101ED00097948794CA95D1F7E9016A017B018F0134
:101EE000BC01CD01680D791D8A1D9B1D80900001EC
:101EF00090900101A0900201B0900301681579054E
:101F00008A059B0599F4F80187898031A9F4B70106
:101F1000A601552766277727440F551FFA01EF5D65
:101F2000FD4F80819181A0E0B0E018C040E00E94A8
:101F3000530E8111E8CFB9CFB701A6014F775527CE
:101F400066277727440F551F440F551FFA01EF5D91
:101F5000FD4F80819181A281B381BF708883998375
:101F6000AA83BB8381E0DF91CF911F910F91FF90F6
:101F7000EF90DF90CF90BF90AF909F908F9008959B
:101F80004F925F926F927F92AF92BF92CF92DF9209
:101F9000EF92FF920F931F93CF93DF9300D000D067
:101FA000CDB7DEB78C0149835A836B837C8359019B
:101FB000C12CD12C7601412C82E0582E612C712C41
:101FC00049815A816B817C819E012F5F3F4FC801FF
:101FD0000E943C0F882351F1D301C201F80105840E
:101FE00004C0880F991FAA1FBB1F0A94D2F7C80EFE
:101FF000D91EEA1EFB1E49815A816B817C8187892B
:10200000803129F088EF9FEFAFEFBFE004C088EF89
:102010009FEFA0E0B0E0481759076A077B0780F2FE
:10202000F501C082D182E282F38281E00F900F90AD
:102030000F900F90DF91CF911F910F91FF90EF9034
:10204000DF90CF90BF90AF907F906F905F904F9058
:1020500008958F929F92AF92BF92CF92DF92EF92AC
:10206000FF920F931F93CF93DF93EC018D8181112A
:1020700002C080E077C00B891C892D893E89041736
:10208000150726073707A8F36A017B01823029F478
:10209000CA86DB86EC86FD860DC0C114D104E1043E
:1020A000F10451F41E821F82188619861A861B8637
:1020B0001C861D8681E056C08A849B84AC84BD84C6
:1020C000EB8DFC8D258530E0275F3F4FB501A401E6
:1020D0004150510961097109022E04C07695679536
:1020E000579547950A94D2F7D701C6010197A109E0
:1020F000B10904C0B695A795979587952A95D2F70B
:1021000084179507A607B70720F089288A288B2807
:1021100049F44F89588D698D7A8D4E835F83688726
:10212000798704C0841B950BA60BB70B4C015D018E
:102130008E010A5F1F4F81149104A104B10409F4B8
:10214000A7CF4E815F816885798598018B8D9C8DA5
:102150000E943C0F91E0891A9108A108B1088111F1
:10216000EACF87CFDF91CF911F910F91FF90EF9032
:10217000DF90CF90BF90AF909F908F9008953F9247
:102180004F925F926F927F928F929F92AF92BF9287
:10219000CF92DF92EF92FF920F931F93CF93DF9333
:1021A000CDB7DEB72C970FB6F894DEBF0FBECDBF0C
:1021B0005C01DC015B968D909C905C971696CD90AF
:1021C000DD90ED90FC901997C114D104E104F10465
:1021D00039F0BFEFCB1ADB0AEB0AFB0A312C07C040
:1021E000F401C080D180E280F38033243394F40181
:1021F00081859285A385B4859C01AD012F5F3F4FFA
:102200004F4F5F4F29873A874B875C8726013701FD
:102210001D821E821F821886F40181859285A38506
:10222000B4852D813E814F815885281739074A078B
:102230005B0708F063C089859A85AB85BC858C15E2
:102240009D05AE05BF0550F482E0C82ED12CE12CCF
:10225000F12C92E0492E512C612C712C9E012F5FA4
:102260003F4FB701A601C4010E943C0F882309F427
:1022700045C089819A81AB81BC81892B8A2B8B2BAC
:1022800041F0260137019FEF491A590A690A790A74
:1022900005C0C414D504E604F70491F02D813E81F5
:1022A0004F8158852F5F3F4F4F4F5F4F2D833E83A8
:1022B0004F8358873FEFC31AD30AE30AF30AACCF20
:1022C0000FEF1FEF2FEF3FE0B301A201C4010E9407
:1022D0009C0E882399F0D50116964D915D916D91D4
:1022E0007C911997411551056105710549F09301DC
:1022F0008201C4010E949C0E811102C080E02AC0AC
:10230000D50116964D925D926D927C92199733206D
:1023100051F0D301C2010196A11DB11DF4018083CA
:102320009183A283B383F5018789908DA18DB28DAE
:10233000892B8A2B8B2B69F4D50157964D925D9290
:102340006D927C925A9714968C911497806814968B
:102350008C9381E02C960FB6F894DEBF0FBECDBFF4
:10236000DF91CF911F910F91FF90EF90DF90CF9071
:10237000BF90AF909F908F907F906F905F904F90A5
:102380003F9008952F923F924F925F926F927F926B
:102390008F929F92AF92BF92CF92DF92EF92FF9275
:1023A0000F931F93CF93DF93EC016B014A018D8153
:1023B000811103C08FEF9FEFD7C08C8180FFFACFD0
:1023C0004B885C886D887E884A855B856C857D85B9
:1023D000C401A0E0B0E093018201041B150B260BA1
:1023E000370B081719072A073B0718F44201841A0C
:1023F000950A54011E0126E0220E311CA114B104DD
:1024000009F47EC04A855B856C857D852A0181E063
:102410005822ED818A019B0189E036952795179511
:1024200007958A95D1F78B8D9C8DE23061F4FC0184
:10243000828D938DA48DB58DBC01CD01600F711F70
:10244000821F931F3FC0FC0174807A947022411454
:102450005104C9F4711017C0452B462B472B49F482
:102460008F89988DA98DBA8D8E839F83A887B98710
:102470000AC04E815F816885798591010E943C0F79
:10248000882309F497CFEB8DFC8D8E819F81A885E1
:10249000B9850297A109B109058404C0880F991F65
:1024A000AA1FBB1F0A94D2F7468557856089718998
:1024B000840F951FA61FB71FBC01CD01670D711DAD
:1024C000811D911D20E032E02419350935012A15BE
:1024D0003B0508F439012C8126FD04C06114F2E0AB
:1024E0007F0681F400910001109101012091020109
:1024F000309103016017710782079307B1F402C09E
:10250000C40132C040E00E94530E882309F452CF28
:10251000F201EF5DFD4FD601CF01860D971DE81743
:10252000F90789F021912D93FACF76018301920169
:10253000AB01BC0180911E0290911F020E94190DF7
:10254000882309F437CFC60CD71C8A859B85AC85B8
:10255000BD85860D971DA11DB11D8A879B87AC8700
:10256000BD87A618B7084ACFDF91CF911F910F9171
:10257000FF90EF90DF90CF90BF90AF909F908F90A3
:102580007F906F905F904F903F902F900895CF93E2
:10259000DF93EC018D818823A1F18C8187FF2DC011
:1025A0006E857F858889998941E00E94530E882332
:1025B00041F1EA8980E2E89FF0011124DF01AF5D7B
:1025C000BD4F1097F1F08D81823050F44B895C89BA
:1025D0006D897E895C964D935D936D937C935F9737
:1025E0008F89988DA98DBA8DEF5DFD4F938F828F66
:1025F000B58BA48B8C818F778C83DF91CF910C94DA
:10260000180E80E0DF91CF910895CF93DF93EC0116
:102610000E94C712882311F01D8281E0DF91CF91C3
:102620000895FC01818D928D009711F00C94C712D2
:1026300008952F923F924F925F926F927F928F9266
:102640009F92AF92BF92CF92DF92EF92FF920F9341
:102650001F93CF93DF9300D000D0CDB7DEB78C01AE
:102660005B011A01DC0115968C9115978130C9F434
:1026700014968C9181FF15C082FF1BC0F80143891D
:1026800054896589768982859385A485B585841763
:102690009507A607B70769F0C8010E9429108111A4
:1026A00008C081E090E0F8019383828380E090E0AD
:1026B00039C1610183C0D8015B968D919C915C9773
:1026C000FC01248121502A013B0139E07694679472
:1026D000579447943A95D1F7722E74207A01F1E01D
:1026E000FF22772009F476C080E092E08E199F09DE
:1026F00046018C159D0508F44C01D8015B962D917F
:102700003C915C9716968D919D910D90BC91A02D5A
:102710000297A109B109F901058404C0880F991F26
:10272000AA1FBB1F0A94D2F7468557856089718915
:10273000840F951FA61FB71F9C01AD01270D311DEA
:10274000411D511D29013A01811432E0930609F01F
:1027500088C08091000190910101A0910201B09187
:10276000030184159505A605B70559F48FEF9FEF72
:10277000DC018093000190930101A0930201B093CA
:1027800003019501B301A20180911E0290911F02E5
:102790000E94AD0D882309F484CF9EEFB91AC818A2
:1027A000D908F80182859385A485B585880D991D82
:1027B000A11DB11D82879387A487B587D8011A967A
:1027C0004D915D916D917C911D97C114D10409F0DB
:1027D00072CF87C0E114F10409F086CF16964D91AF
:1027E0005D916D917C9119974115510561057105B8
:1027F00059F457968D919D910D90BC91A02D009705
:10280000A105B10541F521C09E012F5F3F4F0E94F8
:102810003C0F882309F44BCF89819A81AB81BC811D
:10282000F801238D348DF9012789203129F048EFF3
:102830005FEF6FEF7FE004C048EF5FEF60E070E0B4
:1028400084179507A607B70730F0C8010E94BF108C
:1028500081114ACF26CFF80186839783A087B1875D
:1028600043CFE114F10429F5D8011A964D915D91F9
:102870006D917C911D9753968D919D910D90BC917A
:10288000A02D481759076A077B0798F00E94180E79
:10289000882309F406CF4092000150920101609212
:1028A00002017092030180912002816080932002D6
:1028B00008C041E0C301B2010E94530E882309F40D
:1028C000F0CED501F701EF5DFD4FCF01880D991DC9
:1028D000E817F90719F02D912193FACFA80CB91C2C
:1028E0005ECF53968D919D910D90BC91A02D841734
:1028F0009507A607B70740F4F801438B548B658B07
:10290000768B848180688483D80114968C9183FDB2
:1029100002C0C10107C0C8010E94C712882309F480
:10292000C0CEF7CF0F900F900F900F90DF91CF9107
:102930001F910F91FF90EF90DF90CF90BF90AF90DD
:102940009F908F907F906F905F904F903F902F90CF
:102950000895CF93DF931F92CDB7DEB7698341E02F
:1029600050E0BE016F5F7F4F0E9419130F90DF91FF
:10297000CF910895CF93DF93EC01898D9A8D0097C5
:1029800039F481E090E09B838A8380E090E00BC083
:10299000FC01138212820E941913E98DFA8D2281A3
:1029A0003381232B71F7DF91CF910895FC01DB0177
:1029B00012968D919C911397938382838EE591E07B
:1029C0009183808314968C911497848315968C91AF
:1029D0001597858316964D915D916D917C91199710
:1029E00046835783608771871A964D915D916D91EB
:1029F0007C911D9742875387648775871E964D91FA
:102A00005D916D917C91519746875787608B718B53
:102A100052968C915297828B53964D915D916D9108
:102A20007C915697438B548B658B768B57964D9143
:102A30005D916D917C915A97478B508F618F728F0A
:102A40005B968D919C915C97948F838F0895FC0188
:102A50001382128288EE93E0A0E0B0E08483958335
:102A6000A683B7838CE291E091838083128E118ECE
:102A700014860895EF92FF920F931F93CF93DF93E5
:102A8000EC017B018A011B821A8288EE93E0A0E0B0
:102A9000B0E08C839D83AE83BF838CE291E0998309
:102AA00088838DE190E00E94D91F9A8F898F0097CB
:102AB00079F02DE1F701DC0101900D922A95E1F703
:102AC0004CE050E0B801CE010C960E942A21188EED
:102AD000DF91CF911F910F91FF90EF900895CF93C9
:102AE000DF931F92CDB7DEB741E050E0BE016F5FCC
:102AF0007F4F0E94C211019719F4898190E002C0B2
:102B00008FEF9FEF0F90DF91CF910895FC01818DA2
:102B1000928D009711F00C946F158FEF9FEF089531
:102B20000F931F93CF93DF93FC01818D928D0097BC
:102B3000B9F0EF010E946F158C010F3F8FEF18075E
:102B400091F0898D9A8DFC01428553856485758548
:102B500041505109610971090E942910C80105C03D
:102B600080E090E002C08FEF9FEFDF91CF911F9147
:102B70000F910895CF93CFB7F894809118028111E7
:102B800027C0EAEAF0E08491E0E8F0E09491E82FD1
:102B9000F0E0EE0FFF1FEA53FF4FA591B491EC91C7
:102BA000E92321F461E084E00E94100961E084E0FF
:102BB0000E9440098CB580618CBD8CB580648CBD51
:102BC00061E087E00E94400961E085E00E944009E1
:102BD000809118028F5F80931802CFBFCF91089524
:102BE000CF93DF93EC016A8B8091000190910101FA
:102BF000A0910201B09103018E879F87A88BB98BAA
:102C000080E2689FF0011124EF5DFD4F44895589F2
:102C100060E070E0BA01552744274F8B588F698FC9
:102C20007A8F828D938DA0E0B0E0482B592B6A2BD0
:102C30007B2B4F8B588F698F7A8F8385887151F4E6
:102C4000848D958DA68DB78D8B8B9C8BAD8BBE8B1C
:102C500081E00EC0803111F080E015C09E012D5E34
:102C60003F4F8B8D9C8D0E94C00F8823A9F384E079
:102C70008D8381E08C831E821F82188619861A86B6
:102C80001B861C861D86DF91CF910895009769F001
:102C9000FC0101900020E9F73197AF01481B590B67
:102CA000BC018BE095E00C94320380E090E0089545
:102CB000CF93DF930E944616EC0186ED91E00E94CF
:102CC00046168C0F9D1FDF91CF910895AF92BF9252
:102CD000CF92DF92EF92FF920F931F93CF93DF93E8
:102CE000CDB7DEB72B970FB6F894DEBF0FBECDBFC2
:102CF0007C01CE0101966C01FC0190E28BE08C0D11
:102D000091938E13FDCFDA0120E037E09D91992356
:102D100039F19E3219F0EAEFF0E00AC03A3009F4D6
:102D2000AAC028E03AE0F2CF3196891709F4A3C08F
:102D300084918111F9CF321708F49DC08FED890F6E
:102D40008E3508F098C081E0820FF601E20FF11D88
:102D50002FE9290F2A3108F490529083282FD6CFDB
:102D60008981803209F487C08B01FB01838D948DAA
:102D7000F701948F838FFB011682178210861186CC
:102D80001286138614861586A12CF80182859385F8
:102D9000A485B58543895489658976898417950703
:102DA000A607B70708F067C025E0B695A7959795E1
:102DB00087952A95D1F7F82FFF70BF2EF8018581EE
:102DC000823008F458C0C8010E946F1597FD53C0A7
:102DD000F80182859385A485B5854F96A11DB11D07
:102DE00082879387A487B587F0E2BF9EC001112434
:102DF000BC016F5D7D4F61157105E9F1FB0120811B
:102E00002223B9F1253EE1F04BE050E0C6010E94DB
:102E10000B21892B09F0B9CF6B2DC7012B960FB66B
:102E2000F894DEBF0FBECDBFDF91CF911F910F9100
:102E3000FF90EF90DF90CF90BF90AF900C94F01583
:102E4000A11014C0F701B28A409100015091010114
:102E5000609102017091030146875787608B718BE7
:102E6000FC01EF5DFD4F8081882329F0AA24A39403
:102E70008CCFAA2039F380E02B960FB6F894DEBFF2
:102E80000FBECDBFDF91CF911F910F91FF90EF90BB
:102E9000DF90CF90BF90AF9008958F929F92AF92A6
:102EA000BF92CF92DF92EF92FF92CF93DF93C82F22
:102EB00082EC94E090931F0280931E02CC2369F170
:102EC000C53010F080E00DC140E060E070E0CB0163
:102ED0000E94530E8823B1F320E1C29FC001112448
:102EE0008F5E9D4FFC01E254FE4F20812F7751F7FA
:102EF0003C96408151816281738144365105610560
:102F0000710500F33497C080D180E280F380C11452
:102F1000D104E104F10421F4D5CFC12CD12C7601E8
:102F200040E0C701B6010E94530E882359F28091F8
:102F30002C0290912D028115924021F6A091310230
:102F4000AA2309F4BFCF60912F027091300261155E
:102F5000710509F4B7CF20912E02222309F4B2CFD4
:102F6000A093E0042093D20480E030E0E1E0F0E0C0
:102F7000C82FAF01082E02C0440F551F0A94E2F774
:102F80002417350741F0982F8F5F983089F789E033
:102F90008093DB0497CF8093DB042091370230913C
:102FA00038022115310519F040E050E008C02091A9
:102FB00045023091460240914702509148022093C9
:102FC000D3043093D4044093D5045093D6044601DF
:102FD0005701860E971EA11CB11C8092E1049092AD
:102FE000E204A092E304B092E404E0913202F09192
:102FF0003302F093E704E093E604B0E00E94B91FC7
:10300000860E971EA81EB91E8092E8049092E904CD
:10301000A092EA04B092EB0485E0EE0FFF1F8A95C0
:10302000E1F7E150FE4FEF2FFF27E6958E0E9F1E32
:10303000A11CB11C8092DC049092DD04A092DE04FD
:10304000B092DF0420913402309135022115310510
:1030500021F0A90160E070E008C040914102509168
:1030600042026091430270914402D701C60188195F
:103070009909AA09BB09840F951FA61FB71F04C091
:10308000B695A79597958795CA95D2F78093D7045B
:103090009093D804A093D904B093DA04853F2FE02D
:1030A0009207A105B10510F48CE018C0853F9F4F31
:1030B000A105B10510F480E111C080914D029091FD
:1030C0004E02A0914F02B09150028093E804909379
:1030D000E904A093EA04B093EB0480E28093E50452
:1030E00081E0DF91CF91FF90EF90DF90CF90BF9084
:1030F000AF909F908F9008951F93CF93DF93182FD9
:103100008091BE049091BF040E949E0CCBE0D5E05C
:10311000EFA1F8A580819FA5982B9083EDA1FEA13A
:1031200020819EA5909592239083812F0E94080A6A
:10313000EDA1FEA190818EA5892B8083DF91CF9197
:103140001F910C94530CCF93DF93CDB7DEB7C358C8
:10315000D1090FB6F894DEBF0FBECDBF789484B509
:10316000826084BD84B5816084BD85B5826085BD83
:1031700085B5816085BD80916E00816080936E0011
:103180001092810080918100826080938100809103
:1031900081008160809381008091800081608093B4
:1031A00080008091B10084608093B1008091B00074
:1031B00081608093B00080917A00846080937A006F
:1031C00080917A00826080937A0080917A00816099
:1031D00080937A0080917A00806880937A001092C0
:1031E000C10062E087E10E94400962E086E10E943E
:1031F000400961E081E00E94400960E081E00E94B6
:10320000100961E081E00E94100910923B051092C4
:103210003C0561E0809135050E94400961E08091A4
:1032200034050E9440092091340530E0F901EA5547
:10323000FF4FE491F0E0EE0FFF1FE456FF4F859142
:10324000949190933105809330054091350550E07D
:10325000FA01EA55FF4F8491E82FF0E0EE0FFF1FCF
:10326000E456FF4F859194919093330580933205F6
:10327000F901E458FF4FE491E0933905FA01E4586D
:10328000FF4FE491E0933A050E94BA1580E58093E0
:10329000BE041092BF04E0913005F0913105908199
:1032A00080913905809589238083809136058F3FF1
:1032B00021F161E00E94400961E0809136050E94A1
:1032C000100964EF71E080E090E00E947C0960E00A
:1032D000809136050E94100964EF71E080E090E073
:1032E0000E947C0961E0809136050E94100964EF1C
:1032F00071E080E090E00E947C0910922A0581E054
:1033000080932B0561E08BE095E00E944C0A64EF0E
:1033100071E080E090E00E947C0961E18BE095E043
:103320000E944C0A65E070E080E090E00E947C0919
:103330006AE38BE095E00E944C0A85E00E947C18CD
:1033400065E070E080E090E00E947C0966E28BE03E
:1033500095E00E944C0A84E00E947C1861E070E0D5
:1033600080E090E00E947C0962EF8BE095E00E9493
:103370004C0A81E00E947C1861E070E080E090E0FF
:103380000E947C0963E18BE095E00E944C0A66EBA9
:103390008BE095E00E944C0A8FEF0E947C1886E03B
:1033A0000E947C1860EE8BE095E00E944C0A09E1D7
:1033B00011E08FE0D82ED00EF80181918F010E948C
:1033C0007C18D012F9CF61EE8BE095E00E944C0A98
:1033D0000AE011E0BFE0DB2ED00EF80181918F01F1
:1033E0000E947C18D012F9CF61EB8BE095E00E942F
:1033F0004C0A88E00E947C1882E00E947C1861E000
:1034000070E080E090E00E947C0964EB8BE095E046
:103410000E944C0A87E00E947C1861E070E080E026
:1034200090E00E947C0960EC8BE095E00E944C0AE1
:103430008AE00E947C1882E00E947C1861E070E0C3
:1034400080E090E00E947C0961EC8BE095E00E94B6
:103450004C0A82E00E947C1861E070E080E090E01D
:103460000E947C0965EC8BE095E00E944C0A80E5A7
:103470000E947C1883E60E947C1861E070E080E086
:1034800090E00E947C0967EC8BE095E00E944C0A7A
:1034900080E00E947C1861E070E080E090E00E9493
:1034A0007C096AE28BE095E00E944C0A60E070E0E3
:1034B0008BE095E00E940D0A60E870E08BE095E0FB
:1034C0000E940D0A6BE28BE095E00E944C0A60E0DE
:1034D00070E08BE095E00E940D0A60EA70E08BE0FE
:1034E00095E00E940D0A63E38BE095E00E944C0A90
:1034F00060E270E08BE095E00E940D0A60E870E009
:103500008BE095E00E940D0A60E070E08BE095E0B2
:103510000E940D0A90912B0580912A05911102C0FD
:10352000877F01C0886080932A051092200588E07B
:1035300080932A0520E830E030931405209313058A
:10354000309316052093150580912A05911102C02C
:10355000877F01C0886080932A0566E38BE095E051
:103560000E944C0A80912A050E947C1869E28BE037
:1035700095E00E944C0A61E070E080E090E00E94DB
:103580007C096CE28BE095E00E944C0A61E070E0FF
:1035900080E090E00E947C0960E070E08BE095E0C4
:1035A0000E94EE0B82E08093200588EC80932A0530
:1035B00080E890E09093140580931305909316058E
:1035C0008093150580912B05811104C080912A05F7
:1035D000877F03C080912A05886080932A0566E36F
:1035E0008BE095E00E944C0A80912A050E947C188D
:1035F0008091130590911405181619063CF48091DA
:1036000015059091160581970CF079C386E891E035
:103610000E9446161092CD041092CB041092C8045A
:103620001092C70484E08093C6040E94B6098B01FF
:1036300061E08091C6040E94400961E08091C60467
:103640000E9410090E94BA1583E58093C00410926D
:10365000C1048091C0049091C1040E949E0CAAE014
:10366000DA2E8FEF0E945F0CDA94D110FACF0E940D
:10367000530C82EC94E00E94A10C20E030E0A90100
:1036800060E082EC94E00E94B70CD82E8093CC04CA
:1036900081E0D81649F00E94B609601B710B613DAC
:1036A000774058F381E056C02AEA31E040E050E02C
:1036B00068E082EC94E00E94B70C82FF03C0D092D5
:1036C000CD0410C0F4E0DF2E0E94660C8093CC0481
:1036D000DA94D110F9CF8A3A11F082E03BC082E04F
:1036E0008093CD048091CD04823021F0812C912CE7
:1036F000540105C0812C912CA12CE0E4BE2E20E0C9
:1037000030E0A90167E382EC94E00E94B70CA501C8
:10371000940169E282EC94E00E94B70C8093CC049F
:10372000882349F00E94B609601B710B613D774008
:1037300030F388E00FC08091CD04823001F520E0A5
:1037400030E0A9016AE382EC94E00E94B70C882380
:1037500041F086E08093C70482EC94E00E94540C10
:10376000ADC00E94660C807C803C19F483E080939D
:10377000CD040E94660C0E94660C0E94660C82ECCE
:1037800094E00E94540C81E58093C00481E0809312
:10379000C1040E944D17882329F08091F1048823E9
:1037A00041F08CC080E00E944D17882309F486C048
:1037B000F4CF8091E504803109F582E08093F10433
:1037C000109203051092040510920505109206054B
:1037D0008091E6049091E704A0E0B0E075E0880FE6
:1037E000991FAA1FBB1F7A95D1F78093FF0490936E
:1037F0000005A0930105B09302051FC0803209F0B7
:103800005DC083E08093F1044091E8045091E904A5
:103810006091EA047091EB04409303055093040512
:1038200060930505709306052FEF34E08EEC94E06D
:103830000E94C00F882309F441C08EEC94E090935D
:1038400008058093070581E08093F0041092F2044C
:103850001092F3041092F4041092F5041092F604FE
:103860001092F7041092F8041092F9041092FA04DE
:103870001092FB041092FC041092FD041092FE04BE
:103880008BE991E00E9458165E01E2E2AE0EB11C97
:103890006CEE74E0C5010E94D6141C821B828EE57A
:1038A00091E09A8389831E828E010F5F1F4F35013D
:1038B00064E8862E61E0962E28010CC080EB91E032
:1038C0000E94581610C1F40180818F3261F4FFEF1D
:1038D0008F1A9F0A6FE270E0C4010E9418216C01E8
:1038E000892B89F73EC08C2D88198D3008F08CE02B
:1038F000C82ED12CA601B401CE01845A9F4F0E943C
:103900002A21ECE5F0E0EC0FFD1FEC0DFD1D10820F
:10391000C8010E940513F8018581882371F0239660
:103920001FAE1EAE23978EE591E021969FAF8EAF1E
:10393000219725961FAE25971DC0AE01445A5F4FB3
:10394000B301C8010E946616882349F38C0C9D1CA4
:10395000C3010E940513962D872D3801092F182FBA
:10396000B9CFC401845891407C01B301CE01CF96F8
:103970000E94D61487010C571E4FF80180818111D7
:1039800009C0BE01615C7F4FC2010E94D61444E8A9
:1039900051E02FC01DA21CA28EE591E09BA38AA33B
:1039A0001FA225968FAD2597811106C0CE01845A9E
:1039B0009F4F0E94271523C08250A801823040F4F7
:1039C0006CEE74E0C5010E94661681110DC0EECF49
:1039D000BE01615C7F4FC5010E946616882331F3EA
:1039E000CE01CF960E940513B501C2010E94D614E4
:1039F000A801B201CE01845A9F4F0E943A15A096A9
:103A00008EAD9FADA0979093400580933F05A496FF
:103A10008CAD9DADAEADBFADA497809341059093A5
:103A20004205A0934305B0934405A8968CAD9DAD87
:103A3000AEADBFADA8978093450590934605A09382
:103A40004705B09348058DE0ECE5F0E0EC0FFD1F75
:103A50003C96A9E4B5E001900D928A95E1F7E796CE
:103A60008EAD9FADE797909357058093560587ECF1
:103A700091E00E94461603EF11E0EE24EA9443E041
:103A8000F42E5DE0D52ED00EC7010E9439218F3F64
:103A900071F483EF91E00E94581606EE11E02DEFCD
:103AA000E22E23E0F22E3DE0D32ED00E11C0F8011D
:103AB00081938F01FDE0EF1AF108D012E5CFE9CF35
:103AC000F80181938F01FDE0EF1AF108D01629F07B
:103AD000C7010E9439218F3F99F764E670E080E0CA
:103AE00090E00E947C098AE0882E912CA12CB12CB8
:103AF0009CE5E92EF12CEC0EFD1E8CE0E80EF11C8D
:103B000087E10E94E708892B09F0B0C000915605B3
:103B100010915705F8018581823008F472C0F801D0
:103B200082859385A485B5858F719927AA27BB27A0
:103B3000892B8A2B8B2B09F064C040E250E0BE0138
:103B40006F5F7F4FC8010E94C211803209F059C0D7
:103B50008981882309F455C0853E79F38E3269F353
:103B60008C8583FDEACF23961FAE1EAE23978EE58C
:103B700091E021969FAF8EAF219725961FAE259796
:103B8000FE01319680E090E03EE22191203291F0FA
:103B9000983041F4A7E7B0E0AC0FBD1FA80FB11DEE
:103BA0003C938F5FA7E7B0E0AC0FBD1FA80FB11D1E
:103BB0002C938F5F9F5F9B3041F7E7E7F0E0EC0FBE
:103BC000FD1FE80FF11D1082AE0149585F4FB8018B
:103BD000CE01CF960E946616882399F0BE01615CE3
:103BE0007F4FCE0182960E94D614AE0149585F4F96
:103BF000BE016E5D7F4FCE01845A9F4F0E943A15E1
:103C000005C0CE01845A9F4F0E942715E7968EADBE
:103C10009FADE797009709F4CEC0FC0125812223D0
:103C200009F4B6C08CE590E08C0F9D1F0C960E94A5
:103C30004616E796EEADFFADE797309709F476C0EC
:103C40008581823008F472C086ED91E00E944616AC
:103C5000E7968EAD9FADE797009741F00E94051360
:103C6000E7968EAD9FADE7970E946E2086E10E9499
:103C7000E708892BD9F513EF40910D0250910E0200
:103C8000FA01E050FE4F608161111AC023EF240356
:103C9000C001259F900D11246FEF81509C4F0E9411
:103CA000412168EC70E080E090E00E947C0989EDA1
:103CB00091E00E94581680E092E00E94581616C0CB
:103CC0004D30510518F71403C001159F900D1124B4
:103CD00081509C4F0E94412180910D0290910E02D3
:103CE000019690930E0280930D02C6CF68EC70E0AF
:103CF00080E090E00E947C090E941F0401CF00E256
:103D000010E020E030E040E050E060E070E08BE068
:103D100095E00E94860A109218051092170580E21D
:103D200090E090931A058093190570CC81EE91E094
:103D30000E944616E796EEADFFADE797309729F063
:103D4000238934894589568903C020E030E0A901E0
:103D500019A28E010F5D1F4FCA01B901A50194017F
:103D60000E94971F605DF80162938F012115310554
:103D70004105510589F7CF010E94461686ED91E075
:103D80000E944616B70180E092E00E94232160CF96
:103D90000115110509F462CFF8012581223008F4DC
:103DA0005BCFF80116821782108611861286138661
:103DB0001486158651CF0115110571F757CFCF9392
:103DC000E1E2F4E01382128288EE93E0A0E0B0E03A
:103DD00084839583A683B7838EE391E09183808368
:103DE00085EC90E09587848784EC90E097878687C0
:103DF00080EC90E0918B808B81EC90E0938B828BB8
:103E000082EC90E0958B848B86EC90E0978B868B90
:103E1000118E128E138E148EEEEBF4E081E580830A
:103E2000C1E0C183E0ECF4E08083C183E2ECF4E024
:103E3000158216821186138682E090E0A0E0B0E041
:103E400084879587A687B78713A215A614A68EE543
:103E500091E093A782A717A68DE395E00E9427150E
:103E6000ABE0B5E013961C921E92129780E890E0AA
:103E700015969C938E93149717969C938E931697F2
:103E800019969C938E9318971B969C938E931A97D2
:103E900055961C9255971D961C921E921C971F9624
:103EA0001C921E921E975496CC9354978FEF9FEFBF
:103EB00053969C938E93529751969C938E935097C2
:103EC0005E96CC935E9756961C925697EAE0F1E088
:103ED0005D96FC93EE935C975B96CC935B97E49135
:103EE0005796EC935797EBE0F1E0E4915896EC93FA
:103EF0005897ECE0F1E0E4915996EC935997EDE096
:103F0000F1E0E4915A96EC935A978EE691E011967F
:103F10009C938E9383E099968C93999788E19A96D7
:103F20008C939A978FEF9B968C93CF910895A1E2F3
:103F30001A2EAA1BBB1BFD010DC0AA1FBB1FEE1F23
:103F4000FF1FA217B307E407F50720F0A21BB30B6E
:103F5000E40BF50B661F771F881F991F1A9469F7EA
:103F600060957095809590959B01AC01BD01CF0146
:103F700008950E94CA1FA59F900DB49F900DA49F05
:103F8000800D911D11240895EE0FFF1F0590F491EF
:103F9000E02D0994A29FB001B39FC001A39F700DB3
:103FA000811D1124911DB29F700D811D1124911D41
:103FB0000895CF93DF938230910510F482E090E072
:103FC000E0915A05F0915B0520E030E0C0E0D0E0E0
:103FD000309711F14081518148175907C0F04817B7
:103FE000590761F482819381209719F09B838A831A
:103FF0002BC090935B0580935A0526C0211531058F
:1040000019F04217530718F49A01BE01DF01EF01BE
:104010000280F381E02DDCCF2115310509F1281B49
:10402000390B2430310590F412968D919C911397A1
:104030006115710521F0FB019383828304C0909385
:104040005B0580935A05FD01329644C0FD01E20FE5
:10405000F31F81939193225031092D933C933AC0E1
:104060002091580530915905232B41F420910601E8
:104070003091070130935905209358052091040190
:10408000309105012115310541F42DB73EB740911E
:10409000080150910901241B350BE0915805F0915E
:1040A0005905E217F307A0F42E1B3F0B2817390719
:1040B00078F0AC014E5F5F4F2417350748F04E0F84
:1040C0005F1F50935905409358058193919302C007
:1040D000E0E0F0E0CF01DF91CF9108950F931F93BF
:1040E000CF93DF93009709F48CC0FC0132971382C1
:1040F000128200915A0510915B050115110581F49A
:1041000020813181820F931F2091580530915905EC
:104110002817390779F5F0935905E093580571C0D0
:10412000D80140E050E0AE17BF0750F412962D9131
:104130003C911397AD012115310509F1D901F3CF58
:104140009D01DA013383228360817181860F971F7D
:104150008217930769F4EC0128813981260F371FF4
:104160002E5F3F4F318320838A819B81938382839B
:10417000452B29F4F0935B05E0935A0542C0139652
:10418000FC93EE931297ED01499159919E01240FF2
:10419000351FE217F30771F480819181840F951F19
:1041A000029611969C938E938281938113969C9391
:1041B0008E931297E0E0F0E0D80112968D919C91D9
:1041C0001397009719F0F8018C01F6CF8D919C910F
:1041D00098012E5F3F4F820F931F20915805309119
:1041E00059052817390769F4309729F410925B05AF
:1041F00010925A0502C0138212821093590500933F
:104200005805DF91CF911F910F91089581E090E0C3
:10421000F8940C944F21FB01DC0104C08D910190B6
:10422000801921F441505040C8F7881B990B08951C
:10423000FC018191861721F08823D9F799270895E9
:104240003197CF010895FB01DC0101900D92002010
:10425000E1F70895FB01DC014150504048F0019026
:104260000D920020C9F701C01D9241505040E0F767
:104270000895F999FECF92BD81BDF89A992780B52E
:104280000895262FF999FECF1FBA92BD81BD20BD9A
:104290000FB6F894FA9AF99A0FBE01960895F89419
:0242A000FFCF4E
:1042A200FFFFFFFF00005C05800009182D0D1315AC
:1042B2004048530C1D252E24293F26233028105513
:1042C200B74019101E020100000000003D0CBA1494
:1042D2001C0C861590151113000000000000B60397
:1042E20032037F035D037103FD03000000008D08AC
:1042F20032038D088D088D088D0800000000A91476
:104302003203000000008D08320300000000C505E2
:104312003203BA0B0D07760B320BBE06D10A130C11
:10432200150C87042F00496E697469616C697A699A
:104332006E67205344206361726400696E69746918
:10434200616C697A6174696F6E20646F6E652E00AC
:10435200696E697469616C697A6174696F6E2066ED
:1043620061696C6564210043757272656E742042E6
:10437200494E203D20000D0A004C4F414420202789
:064382000009090900001A
:10F000000C943E780C9468780C9468780C9468782A
:10F010000C9468780C9468780C9468780C946878F0
:10F020000C9468780C9468780C9468780C946878E0
:10F030000C9468780C9468780C9468780C946878D0
:10F040000C9468780C9468780C9468780C946878C0
:10F050000C9468780C9468780C9468780C946878B0
:10F060000C9468780C9468780C9468780C946878A0
:10F070000C9468780C9468780C94687811241FBEFE
:10F08000CFEFD8E0DEBFCDBF87EF84BF0FB6F894D7
:10F09000A895809160008861809360001092600064
:10F0A0000FBE11E0A0E0B1E0EAECFFEF02C0059076
:10F0B0000D92AA31B107D9F722E0AAE1B1E001C06F
:10F0C0001D92A035B207E1F70E94AC790C94E37F62
:10F0D0000C940078209A209A0895289A08952898E8
:10F0E0000895209A089520980895209B0C94717893
:10F0F0000C947378289B0C946D780C946F78249AF8
:10F10000259A279A2E9A089580EA31973197319758
:10F1100000008A95D1F7089502D02C9801C02C9A4E
:10F120008FEF98E087FD2D9A87FF2D98880F1E9905
:10F1300083952F9A2F989A95A9F70895FB0183E05C
:10F1400080935700E8958091570080FDFCCF81E1C6
:10F1500080935700E89508950F921F92FB01DA0102
:10F1600090E80D901D9081E080935700E8953296CD
:10F170009A95B9F7FB0185E080935700E895809157
:10F18000570080FDFCCF81E180935700E8951F90E8
:10F190000F900895CF92DF92EF92FF92CF93DF937B
:10F1A00000D0CDB7DEB7C12CD12C760140E051E0C4
:10F1B0006FEF70E087E491E00E94C67FAE014F5F81
:10F1C0005F4F60E071E087E491E00E946E7DA7E40C
:10F1D000B1E0C60187549140FC01EA0FFB1FE491A6
:10F1E0002D91E21317C022E0A734B207A9F78FEFE1
:10F1F000D81AE80AF80AC11420EFD206E104F10493
:10F20000A9F60F900F90DF91CF91FF90EF90DF90D4
:10F21000CF900895C701B6010E949E7847E451E05F
:10F22000C701B6010E94AC78E2CFADE0B0E0EBE1FF
:10F23000F9E70C94867F5C018DE191E00E94E97A08
:10F2400081116FC08DE0E0E0F1E09E012F5F3F4F44
:10F250007901D90101900D928A95E1F789012DEF8D
:10F26000C22E27E0D22EC8018E199F09F8016191A4
:10F270008F01662339F0C6010E94D57F3DE0C31A95
:10F28000D108F1CF4DE0489F9001499F300D1124E6
:10F290006FEF8DEF97E0821B930B0E94D57F00E00C
:10F2A00010E0379B09C087E4882E82E0982ECC249A
:10F2B000CA9497E0D92E0FC03799F3CFC5010E94A9
:10F2C000D67B0E94CA78F80185919491019649F302
:10F2D000F8010995E6CF9401275432407901C6011F
:10F2E0000E94CD7F3DE0C31AD1088F3F21F0F40189
:10F2F00081934F01F0CFF701E95BFD4F108287E466
:10F3000092E00E94D67B8111CCCF87E492E00E94EC
:10F31000D67B0E94CA78F801859194910196C1F636
:10F32000C0CF2D96ECE00C94A27FADE0B0E0EBE90D
:10F33000F9E70C94907F8DE0EDE0F1E0DE011196AD
:10F3400001900D928A95E1F7CE0101960E94157900
:10F350002D96E2E00C94AC7F3F98479A2FEF81EE18
:10F3600094E0215080409040E1F700C000000E94EE
:10F3700095792FEF83E294EF215080409040E1F7A0
:10F38000F4CF0F931F93E0911A01F0911B019B01A1
:10F39000AC01225031094109510986819781A0852C
:10F3A000B1850297A109B109281739074A075B07F8
:10F3B00068F4A281B0E00E94757F028913892489D4
:10F3C0003589600F711F821F931F03C060E070E0DA
:10F3D000CB011F910F9108950F931F93CF93DF934C
:10F3E000DC01E0911A01F0911B0111961C921E9212
:10F3F00014966D917D918D919C9117976130710557
:10F400008105910569F10681178120853185601795
:10F4100071078207930720F5611571058105910534
:10F4200039F42081233021F466857785808991899C
:10F43000ED01688779878A879B876115710581054A
:10F44000910519F00E94C17904C06685778580898D
:10F4500091896C877D878E879F8780E090E002C0CE
:10F4600081E090E0DF91CF911F910F910895A4E08A
:10F47000B0E0EDE3FAE70C948A7FE0911A01F09195
:10F480001B01623071058105910508F459C0C680E1
:10F49000D780E084F1846C157D058E059F0508F00A
:10F4A0004FC02081223019F0233001F149C09B0167
:10F4B0003327220F331FBB27A92F982F872FC284F2
:10F4C000D384E484F584AC01BD014C0D5D1D6E1D3B
:10F4D0007F1D02E010E0CE0101960E94047F892B7F
:10F4E00079F569817A8180E090E02EC09B012F77C9
:10F4F0003327220F331F220F331FDC01CB0157E0CC
:10F50000B695A795979587955A95D1F7C284D384D8
:10F51000E484F584AC01BD014C0D5D1D6E1D7F1DA5
:10F5200004E010E0CE0101960E94047F892B41F493
:10F5300089819A81AB81BC81BC01CD019F7004C0DF
:10F5400061E070E080E090E02496E8E00C94A67F13
:10F55000A0E0B0E0EEEAFAE70C948A7FEC016A01E1
:10F560007B0102E010E02EEF31E00E94047F892B46
:10F5700031F58881998185359A4A19F526E330E07D
:10F58000B701A601CE010E94047F892B39F488813E
:10F5900099818634914411F480E016C002E010E0B5
:10F5A00022E530E0B701A601CE010E94047F892B3D
:10F5B00051F4888199818634914429F4EDCF83E018
:10F5C00003C082E001C081E0CDB7DEB7E8E00C9473
:10F5D000A67FA4E2B0E0EFEEFAE70C94807F1C0176
:10F5E00010921B0110921A010E94697E80FDA0C03A
:10F5F00040E050E0BA01CE0101960E94A87A813025
:10F6000009F500E110E02EEB31E040E050E0BA01F6
:10F61000CE0101960E94047F892B19F081E090E0D1
:10F62000C1C08D81811103C086E090E0BBC04984D8
:10F630005A846B847C84B301A201CE0101960E949E
:10F64000A87A03C0412C512C3201833039F3811147
:10F65000EBCF04E210E02DE030E0B301A201CE01D7
:10F6600001960E94047F892BC9F62A853B8540E0DC
:10F6700050E0211531054105510521F4288D398DC2
:10F680004A8D5B8DAC81B0E00E94757F4B015C01BF
:10F690000A811B8120E030E0400E511E621E731E65
:10F6A000F101428653866486758649814283CD8006
:10F6B000DE80D582C4828F819885A0E0B0E000977B
:10F6C000A105B10521F48C899D89AE89BF8954E0DB
:10F6D000D694C7945A95E1F7E12CF12C801B910B3D
:10F6E000A20BB30B88199909AA09BB09BC01CD016A
:10F6F0006C197D098E099F09242F30E040E050E00D
:10F700000E94537FDA01C9010296A11DB11DF101CA
:10F7100086839783A087B187BA01A901465F5F40BE
:10F72000610971094F3F5F4E61057105A0F103C08A
:10F7300082E090E037C0873F9F4FA105B10508F4F4
:10F7400073CF83E0F1018083833029F488A199A1EC
:10F75000AAA1BBA107C0D501C401840D951DA61D9A
:10F76000B71DF10186879787A08BB18BC40CD51C80
:10F77000E61CF71CC80CD91CEA1CFB1CF101C28A50
:10F78000D38AE48AF58A118230921B0120921A01F1
:10F7900080E090E007C0873F9F4FA105B10588F644
:10F7A00082E0D0CFA496E2E10C949C7F4F925F92CE
:10F7B0006F927F929F92AF92BF92CF92DF92EF9221
:10F7C000FF920F931F93CF93DF93CDB7DEB7EC97E4
:10F7D0000FB6F894DEBF0FBECDBFC0901A01D09017
:10F7E0001B01C114D10409F452C1D60111961C9217
:10F7F0009E012F5C3F4F3CA32BA3FC012E2F9F2F7C
:10F8000081918032D9F3E22EF92E8F3219F4BFEFB5
:10F81000EB1AFB0A1DA21EA21FA218A6F7018081E7
:10F82000803238F0A0E29A2E5E01FCE0AF0EB11CEF
:10F830006AC0CE0181960E94EC791982009709F482
:10F84000F1C036C180E090E028E031E0390FD70107
:10F85000A90FB11D9C91913208F060C0E30EF11C1C
:10F8600081E0913208F080E08387CE0181960E948A
:10F87000EC79009709F01CC129A13AA12F70332718
:10F88000F5E0220F331FFA95E1F74DA55EA56FA5B0
:10F8900078A900E210E0CE0101960E94047F892B36
:10F8A00009F0FAC08981882309F4F9C04C8543FD29
:10F8B00053C06BA17CA1FE0131969B01EA15FB05AB
:10F8C000E9F5DB011B968C918111ACC044FFE7C0C8
:10F8D000E0911A01F0911B018081833009F09EC0F4
:10F8E0008D899E89A0E0B0E0DC01992788274B8DA7
:10F8F0005C8D60E070E0842B952BA62BB72B8DA33D
:10F900009EA3AFA3B8A7EBA1FCA1DF01CF010B968B
:10F91000A817B90709F496CF9D92FACF9F3209F440
:10F920009DCF9E3209F4BEC0821708F097CFDF0149
:10F93000A80FB11D9C938F5F932F87CF8191D90121
:10F940005D919D01082E000C990B851B910957FDB7
:10F950009395892B09F4B2CF60901A0170901B0126
:10F9600009A11AA10F5F1F4F09F499C08DA59EA58B
:10F97000AFA5B8A90097A105B10509F490C09801F9
:10F980002F703327232B09F046C00196A11DB11D0E
:10F990008DA79EA7AFA7B8AB69A57AA58BA59CA597
:10F9A000611571058105910541F4F301848195810B
:10F9B0000817190708F073C02EC0D30112962C91B6
:10F9C00030E0A901415051099801E4E036952795AE
:10F9D000EA95E1F724233523232BE9F40E94377AB3
:10F9E000623071058105910508F456C0F301468027
:10F9F000578060847184641575058605970508F045
:10FA00004EC069A77AA78BA79CA70E94C1796DA752
:10FA10007EA78FA798AB1AA309A32ECF80E090E012
:10FA2000DC0165CF89818823A1F18C8584FD31C0FB
:10FA3000E0911A01F0911B018081833041F48D899E
:10FA40009E89A0E0B0E0DC019927882703C080E010
:10FA500090E0DC014B8D5C8D60E070E0842B952B99
:10FA6000A62BB72BF601868F978FA0A3B1A38D8D00
:10FA70009E8DAF8DB8A1828F938FA48FB58F168A7C
:10FA8000178A108E118E81E0818380E003C085E0AB
:10FA900001C083E090E00CC081E090E009C083E009
:10FAA00090E006C0283009F0D9CE88E02BE044CFA2
:10FAB000EC960FB6F894DEBF0FBECDBFDF91CF91AD
:10FAC0001F910F91FF90EF90DF90CF90BF90AF907C
:10FAD0009F907F906F905F904F900895A0E0B0E06E
:10FAE000E4E7FDE70C94827F4C016B015A01C09161
:10FAF0001A01D0911B01FA0111821082209709F49A
:10FB0000A1C0898180FFA1C08A8D9B8DAC8DBD8DE8
:10FB10004E895F89688D798D841B950BA60BB70B79
:10FB2000A60160E070E084179507A607B70708F400
:10FB30006C013401412C32E0532EC114D10409F47C
:10FB40007EC08E899F89A88DB98DAC01BD01517091
:10FB500066277727452B462B472BD1F5FA80FA9459
:10FB6000AC01BD0129E076956795579547952A9593
:10FB7000D1F7F422C1F4892B8A2B8B2B29F46E8DBB
:10FB80007F8D88A199A106C06AA17BA18CA19DA1AE
:10FB90000E94377A6230710581059105A0F16AA350
:10FBA0007BA38CA39DA36AA17BA18CA19DA10E9494
:10FBB000C179611571058105910529F1DC01CB0140
:10FBC0008F0D911DA11DB11D8EA39FA3A8A7B9A73D
:10FBD0002E893F893170C201821B930B76018C15EF
:10FBE0009D0508F47C014EA15FA168A579A581144B
:10FBF000910411F0C30102C080E090E087010E94EF
:10FC0000047F892B21F0198281E090E020C08E8949
:10FC10009F89A88DB98D8E0D9F1DA11DB11D8E8B45
:10FC20009F8BA88FB98F6E0C7F1CCE18DF08F50153
:10FC300080819181E80EF91EF182E0827ECF80E022
:10FC400090E005C085E090E002C084E090E0CDB790
:10FC5000DEB7E0E10C949E7FFF920F931F93CF934A
:10FC6000DF93C82FD42F152F062FF72E87FF09C03B
:10FC700040E050E0BA0187E70E942C7E823020F5F8
:10FC8000CF770E948C788C2F0E9491788F2D0E94C4
:10FC90009178802F0E949178812F0E9491788D2FEA
:10FCA0000E949178C03421F0C83421F487E803C061
:10FCB00085E901C081E00E949178CAE00E949078B5
:10FCC00087FF02C0C150D1F7CDB7DEB7E5E00C9495
:10FCD000A97FA4E0B0E0EFE6FEE70C948B7F0E94E2
:10FCE0007F7814E60E9484781150E1F71AE00E94B0
:10FCF0008F781150E1F740E050E0BA0180E40E94B3
:10FD00002C7E813009F07AC04AEA51E060E070E070
:10FD100088E40E942C7E813051F58E010F5F1F4FC9
:10FD2000780124E0D22ED00E0E949078F7018193C2
:10FD30007F01DE12F9CF8B81813009F05FC08C81A9
:10FD40008A3A09F05BC090E1E92E97E2F92E40E093
:10FD500050E060E070E489EE0E942C7E882339F147
:10FD60000E948478F1E0EF1AF10889F747C040E07B
:10FD700050E0BA0189EE0E942C7E823018F011E02A
:10FD800001E402C012E009EE80E1E82E87E2F82EDD
:10FD900040E050E0BA01802F0E942C7E882329F198
:10FDA0000E948478F1E0EF1AF10891F727C040E053
:10FDB00050E0BA018AE70E942C7E81111FC00E9488
:10FDC0009078F80181938F01DE12F9CF898186FD49
:10FDD00002C014E001C01CE010931C010E948F7847
:10FDE00081E0112369F080E00BC040E052E060E068
:10FDF00070E080E50E942C7E882371F310E0ECCF48
:10FE00002496E7E00C94A77FA0E0B0E0EAE0FFE7EB
:10FE10000C948A7FD82EC92E790180911C0183FD14
:10FE200007C089E0440F551F661F771F8A95D1F7D9
:10FE300081E50E942C7E882319F0C1E0D0E02BC020
:10FE4000C0E4DCE90E9490788F3F19F42197D1F744
:10FE5000F4CF8E3F91F7C2E0D2E0C01BD10BCE1998
:10FE6000DF09E114F10419F4ED2CFC2C06C00E940A
:10FE7000907881E0E81AF108F4CF0E949078F701B9
:10FE800081937F0101501109C1F70E949078219759
:10FE9000E1F7C0E0D0E00E948F78CE01CDB7DEB7A9
:10FEA000E8E00C94A67FA1E21A2EAA1BBB1BFD0161
:10FEB0000DC0AA1FBB1FEE1FFF1FA217B307E40749
:10FEC000F50720F0A21BB30BE40BF50B661F771FA1
:10FED000881F991F1A9469F7609570958095909581
:10FEE0009B01AC01BD01CF0108950E94B77FA59F82
:10FEF000900DB49F900DA49F800D911D1124089525
:10FF00002F923F924F925F926F927F928F929F9229
:10FF1000AF92BF92CF92DF92EF92FF920F931F9317
:10FF2000CF93DF93CDB7DEB7CA1BDB0B0FB6F894C8
:10FF3000DEBF0FBECDBF09942A88398848885F8408
:10FF40006E847D848C849B84AA84B984C884DF8079
:10FF5000EE80FD800C811B81AA81B981CE0FD11D5D
:10FF60000FB6F894DEBF0FBECDBFED010895A29F7E
:10FF7000B001B39FC001A39F700D811D1124911D7D
:10FF8000B29F700D811D1124911D0895DC0101C0E7
:10FF90006D9341505040E0F70895F999FECF92BD1E
:10FFA00081BDF89A992780B50895262FF999FECF3B
:10FFB0001FBA92BD81BD20BD0FB6F894FA9AF99A86
:0AFFC0000FBE01960895F894FFCFDC
:10FFCA005255564943534142414C4C4100525556B1
:0AFFDA0049435341422E42494E00B4
:040000030000F00009
:00000001FF
